{
  "_format": "hh-sol-artifact-1",
  "contractName": "Execution",
  "sourceName": "contracts/Execution.sol",
  "abi": [
    {
      "inputs": [],
      "stateMutability": "nonpayable",
      "type": "constructor"
    },
    {
      "inputs": [
        {
          "internalType": "address",
          "name": "owner",
          "type": "address"
        }
      ],
      "name": "OwnableInvalidOwner",
      "type": "error"
    },
    {
      "inputs": [
        {
          "internalType": "address",
          "name": "account",
          "type": "address"
        }
      ],
      "name": "OwnableUnauthorizedAccount",
      "type": "error"
    },
    {
      "anonymous": false,
      "inputs": [
        {
          "indexed": true,
          "internalType": "address",
          "name": "agent",
          "type": "address"
        },
        {
          "indexed": false,
          "internalType": "bool",
          "name": "status",
          "type": "bool"
        }
      ],
      "name": "AgentWhitelisted",
      "type": "event"
    },
    {
      "anonymous": false,
      "inputs": [
        {
          "indexed": true,
          "internalType": "address",
          "name": "agent",
          "type": "address"
        },
        {
          "indexed": true,
          "internalType": "address",
          "name": "vault",
          "type": "address"
        },
        {
          "indexed": false,
          "internalType": "address",
          "name": "target",
          "type": "address"
        },
        {
          "indexed": false,
          "internalType": "bytes",
          "name": "data",
          "type": "bytes"
        }
      ],
      "name": "ExecutionTriggered",
      "type": "event"
    },
    {
      "anonymous": false,
      "inputs": [
        {
          "indexed": true,
          "internalType": "address",
          "name": "previousOwner",
          "type": "address"
        },
        {
          "indexed": true,
          "internalType": "address",
          "name": "newOwner",
          "type": "address"
        }
      ],
      "name": "OwnershipTransferred",
      "type": "event"
    },
    {
      "inputs": [
        {
          "internalType": "address payable",
          "name": "vaultAddress",
          "type": "address"
        },
        {
          "internalType": "address",
          "name": "target",
          "type": "address"
        },
        {
          "internalType": "bytes",
          "name": "data",
          "type": "bytes"
        }
      ],
      "name": "executeStrategy",
      "outputs": [],
      "stateMutability": "nonpayable",
      "type": "function"
    },
    {
      "inputs": [],
      "name": "owner",
      "outputs": [
        {
          "internalType": "address",
          "name": "",
          "type": "address"
        }
      ],
      "stateMutability": "view",
      "type": "function"
    },
    {
      "inputs": [],
      "name": "renounceOwnership",
      "outputs": [],
      "stateMutability": "nonpayable",
      "type": "function"
    },
    {
      "inputs": [
        {
          "internalType": "address",
          "name": "agent",
          "type": "address"
        },
        {
          "internalType": "bool",
          "name": "status",
          "type": "bool"
        }
      ],
      "name": "setAgentStatus",
      "outputs": [],
      "stateMutability": "nonpayable",
      "type": "function"
    },
    {
      "inputs": [
        {
          "internalType": "address",
          "name": "newOwner",
          "type": "address"
        }
      ],
      "name": "transferOwnership",
      "outputs": [],
      "stateMutability": "nonpayable",
      "type": "function"
    },
    {
      "inputs": [
        {
          "internalType": "address",
          "name": "",
          "type": "address"
        }
      ],
      "name": "whitelistedAgents",
      "outputs": [
        {
          "internalType": "bool",
          "name": "",
          "type": "bool"
        }
      ],
      "stateMutability": "view",
      "type": "function"
    }
  ],
  "bytecode": "0x608060405234801561001057600080fd5b5033600073ffffffffffffffffffffffffffffffffffffffff168173ffffffffffffffffffffffffffffffffffffffff16036100845760006040517f1e4fbdf700000000000000000000000000000000000000000000000000000000815260040161007b919061019e565b60405180910390fd5b6100938161009960201b60201c565b506101b9565b60008060009054906101000a900473ffffffffffffffffffffffffffffffffffffffff169050816000806101000a81548173ffffffffffffffffffffffffffffffffffffffff021916908373ffffffffffffffffffffffffffffffffffffffff1602179055508173ffffffffffffffffffffffffffffffffffffffff168173ffffffffffffffffffffffffffffffffffffffff167f8be0079c531659141344cd1fd0a4f28419497f9722a3daafe3b4186f6b6457e060405160405180910390a35050565b600073ffffffffffffffffffffffffffffffffffffffff82169050919050565b60006101888261015d565b9050919050565b6101988161017d565b82525050565b60006020820190506101b3600083018461018f565b92915050565b610b00806101c86000396000f3fe608060405234801561001057600080fd5b50600436106100625760003560e01c80635f6a7e3e14610067578063715018a6146100835780638da5cb5b1461008d578063f2fde38b146100ab578063f95b620d146100c7578063fe6932a1146100e3575b600080fd5b610081600480360381019061007c9190610696565b610113565b005b61008b61029a565b005b6100956102ae565b6040516100a29190610719565b60405180910390f35b6100c560048036038101906100c09190610734565b6102d7565b005b6100e160048036038101906100dc9190610799565b61035d565b005b6100fd60048036038101906100f89190610734565b61040e565b60405161010a91906107e8565b60405180910390f35b600160003373ffffffffffffffffffffffffffffffffffffffff1673ffffffffffffffffffffffffffffffffffffffff16815260200190815260200160002060009054906101000a900460ff1661019f576040517f08c379a000000000000000000000000000000000000000000000000000000000815260040161019690610886565b60405180910390fd5b60008490508073ffffffffffffffffffffffffffffffffffffffff16636ca0f8148585856040518463ffffffff1660e01b81526004016101e193929190610904565b6000604051808303816000875af1158015610200573d6000803e3d6000fd5b505050506040513d6000823e3d601f19601f820116820180604052508101906102299190610a81565b508473ffffffffffffffffffffffffffffffffffffffff163373ffffffffffffffffffffffffffffffffffffffff167f8c26b4792750ff4ed31c60daff516e71a3f20088bc226a3ff88d88a76d8025e186868660405161028b93929190610904565b60405180910390a35050505050565b6102a261042e565b6102ac60006104b5565b565b60008060009054906101000a900473ffffffffffffffffffffffffffffffffffffffff16905090565b6102df61042e565b600073ffffffffffffffffffffffffffffffffffffffff168173ffffffffffffffffffffffffffffffffffffffff16036103515760006040517f1e4fbdf70000000000000000000000000000000000000000000000000000000081526004016103489190610719565b60405180910390fd5b61035a816104b5565b50565b61036561042e565b80600160008473ffffffffffffffffffffffffffffffffffffffff1673ffffffffffffffffffffffffffffffffffffffff16815260200190815260200160002060006101000a81548160ff0219169083151502179055508173ffffffffffffffffffffffffffffffffffffffff167f15177c4a169d25503e3d9d81df4f2d35e3c7f2f0a98bab06dba5e843674543468260405161040291906107e8565b60405180910390a25050565b60016020528060005260406000206000915054906101000a900460ff1681565b610436610579565b73ffffffffffffffffffffffffffffffffffffffff166104546102ae565b73ffffffffffffffffffffffffffffffffffffffff16146104b357610477610579565b6040517f118cdaa70000000000000000000000000000000000000000000000000000000081526004016104aa9190610719565b60405180910390fd5b565b60008060009054906101000a900473ffffffffffffffffffffffffffffffffffffffff169050816000806101000a81548173ffffffffffffffffffffffffffffffffffffffff021916908373ffffffffffffffffffffffffffffffffffffffff1602179055508173ffffffffffffffffffffffffffffffffffffffff168173ffffffffffffffffffffffffffffffffffffffff167f8be0079c531659141344cd1fd0a4f28419497f9722a3daafe3b4186f6b6457e060405160405180910390a35050565b600033905090565b6000604051905090565b600080fd5b600080fd5b600073ffffffffffffffffffffffffffffffffffffffff82169050919050565b60006105c082610595565b9050919050565b6105d0816105b5565b81146105db57600080fd5b50565b6000813590506105ed816105c7565b92915050565b60006105fe82610595565b9050919050565b61060e816105f3565b811461061957600080fd5b50565b60008135905061062b81610605565b92915050565b600080fd5b600080fd5b600080fd5b60008083601f84011261065657610655610631565b5b8235905067ffffffffffffffff81111561067357610672610636565b5b60208301915083600182028301111561068f5761068e61063b565b5b9250929050565b600080600080606085870312156106b0576106af61058b565b5b60006106be878288016105de565b94505060206106cf8782880161061c565b935050604085013567ffffffffffffffff8111156106f0576106ef610590565b5b6106fc87828801610640565b925092505092959194509250565b610713816105f3565b82525050565b600060208201905061072e600083018461070a565b92915050565b60006020828403121561074a5761074961058b565b5b60006107588482850161061c565b91505092915050565b60008115159050919050565b61077681610761565b811461078157600080fd5b50565b6000813590506107938161076d565b92915050565b600080604083850312156107b0576107af61058b565b5b60006107be8582860161061c565b92505060206107cf85828601610784565b9150509250929050565b6107e281610761565b82525050565b60006020820190506107fd60008301846107d9565b92915050565b600082825260208201905092915050565b7f43616c6c6572206973206e6f7420612077686974656c6973746564206167656e60008201527f7400000000000000000000000000000000000000000000000000000000000000602082015250565b6000610870602183610803565b915061087b82610814565b604082019050919050565b6000602082019050818103600083015261089f81610863565b9050919050565b600082825260208201905092915050565b82818337600083830152505050565b6000601f19601f8301169050919050565b60006108e383856108a6565b93506108f08385846108b7565b6108f9836108c6565b840190509392505050565b6000604082019050610919600083018661070a565b818103602083015261092c8184866108d7565b9050949350505050565b600080fd5b7f4e487b7100000000000000000000000000000000000000000000000000000000600052604160045260246000fd5b610973826108c6565b810181811067ffffffffffffffff821117156109925761099161093b565b5b80604052505050565b60006109a5610581565b90506109b1828261096a565b919050565b600067ffffffffffffffff8211156109d1576109d061093b565b5b6109da826108c6565b9050602081019050919050565b60005b83811015610a055780820151818401526020810190506109ea565b60008484015250505050565b6000610a24610a1f846109b6565b61099b565b905082815260208101848484011115610a4057610a3f610936565b5b610a4b8482856109e7565b509392505050565b600082601f830112610a6857610a67610631565b5b8151610a78848260208601610a11565b91505092915050565b600060208284031215610a9757610a9661058b565b5b600082015167ffffffffffffffff811115610ab557610ab4610590565b5b610ac184828501610a53565b9150509291505056fea264697066735822122040b7217cc72ffee458fc72e2d9bf0276981105da7e27a344ef6a16662bf0d5cb64736f6c63430008180033",
  "linkReferences": {},
  "deployedLinkReferences": {}
}