{
  "_format": "hh-sol-artifact-1",
  "contractName": "Vault",
  "sourceName": "contracts/Vault.sol",
  "abi": [
    {
      "inputs": [
        {
          "internalType": "address",
          "name": "_executionContract",
          "type": "address"
        }
      ],
      "stateMutability": "nonpayable",
      "type": "constructor"
    },
    {
      "inputs": [
        {
          "internalType": "address",
          "name": "owner",
          "type": "address"
        }
      ],
      "name": "OwnableInvalidOwner",
      "type": "error"
    },
    {
      "inputs": [
        {
          "internalType": "address",
          "name": "account",
          "type": "address"
        }
      ],
      "name": "OwnableUnauthorizedAccount",
      "type": "error"
    },
    {
      "anonymous": false,
      "inputs": [
        {
          "indexed": true,
          "internalType": "address",
          "name": "user",
          "type": "address"
        },
        {
          "indexed": true,
          "internalType": "address",
          "name": "token",
          "type": "address"
        },
        {
          "indexed": false,
          "internalType": "uint256",
          "name": "amount",
          "type": "uint256"
        }
      ],
      "name": "Deposited",
      "type": "event"
    },
    {
      "anonymous": false,
      "inputs": [
        {
          "indexed": true,
          "internalType": "address",
          "name": "previousOwner",
          "type": "address"
        },
        {
          "indexed": true,
          "internalType": "address",
          "name": "newOwner",
          "type": "address"
        }
      ],
      "name": "OwnershipTransferred",
      "type": "event"
    },
    {
      "anonymous": false,
      "inputs": [
        {
          "indexed": false,
          "internalType": "uint256",
          "name": "maxAllocatedPercentage",
          "type": "uint256"
        },
        {
          "indexed": false,
          "internalType": "uint256",
          "name": "maxSlippage",
          "type": "uint256"
        }
      ],
      "name": "RiskParamsUpdated",
      "type": "event"
    },
    {
      "anonymous": false,
      "inputs": [
        {
          "indexed": true,
          "internalType": "address",
          "name": "target",
          "type": "address"
        },
        {
          "indexed": false,
          "internalType": "bytes",
          "name": "data",
          "type": "bytes"
        }
      ],
      "name": "StrategyExecuted",
      "type": "event"
    },
    {
      "anonymous": false,
      "inputs": [
        {
          "indexed": true,
          "internalType": "address",
          "name": "user",
          "type": "address"
        },
        {
          "indexed": true,
          "internalType": "address",
          "name": "token",
          "type": "address"
        },
        {
          "indexed": false,
          "internalType": "uint256",
          "name": "amount",
          "type": "uint256"
        }
      ],
      "name": "Withdrawn",
      "type": "event"
    },
    {
      "inputs": [
        {
          "internalType": "address",
          "name": "token",
          "type": "address"
        },
        {
          "internalType": "uint256",
          "name": "amount",
          "type": "uint256"
        }
      ],
      "name": "deposit",
      "outputs": [],
      "stateMutability": "nonpayable",
      "type": "function"
    },
    {
      "inputs": [
        {
          "internalType": "address",
          "name": "target",
          "type": "address"
        },
        {
          "internalType": "bytes",
          "name": "data",
          "type": "bytes"
        }
      ],
      "name": "executeTransaction",
      "outputs": [
        {
          "internalType": "bytes",
          "name": "",
          "type": "bytes"
        }
      ],
      "stateMutability": "nonpayable",
      "type": "function"
    },
    {
      "inputs": [],
      "name": "executionContract",
      "outputs": [
        {
          "internalType": "address",
          "name": "",
          "type": "address"
        }
      ],
      "stateMutability": "view",
      "type": "function"
    },
    {
      "inputs": [],
      "name": "maxAllocatedPercentage",
      "outputs": [
        {
          "internalType": "uint256",
          "name": "",
          "type": "uint256"
        }
      ],
      "stateMutability": "view",
      "type": "function"
    },
    {
      "inputs": [],
      "name": "maxSlippage",
      "outputs": [
        {
          "internalType": "uint256",
          "name": "",
          "type": "uint256"
        }
      ],
      "stateMutability": "view",
      "type": "function"
    },
    {
      "inputs": [],
      "name": "owner",
      "outputs": [
        {
          "internalType": "address",
          "name": "",
          "type": "address"
        }
      ],
      "stateMutability": "view",
      "type": "function"
    },
    {
      "inputs": [],
      "name": "renounceOwnership",
      "outputs": [],
      "stateMutability": "nonpayable",
      "type": "function"
    },
    {
      "inputs": [
        {
          "internalType": "address",
          "name": "_executionContract",
          "type": "address"
        }
      ],
      "name": "setExecutionContract",
      "outputs": [],
      "stateMutability": "nonpayable",
      "type": "function"
    },
    {
      "inputs": [
        {
          "internalType": "uint256",
          "name": "_maxAllocatedPercentage",
          "type": "uint256"
        },
        {
          "internalType": "uint256",
          "name": "_maxSlippage",
          "type": "uint256"
        }
      ],
      "name": "setRiskParams",
      "outputs": [],
      "stateMutability": "nonpayable",
      "type": "function"
    },
    {
      "inputs": [
        {
          "internalType": "address",
          "name": "newOwner",
          "type": "address"
        }
      ],
      "name": "transferOwnership",
      "outputs": [],
      "stateMutability": "nonpayable",
      "type": "function"
    },
    {
      "inputs": [
        {
          "internalType": "address",
          "name": "token",
          "type": "address"
        },
        {
          "internalType": "uint256",
          "name": "amount",
          "type": "uint256"
        }
      ],
      "name": "withdraw",
      "outputs": [],
      "stateMutability": "nonpayable",
      "type": "function"
    }
  ],
  "bytecode": "0x6080604052601460025560326003553480156200001b57600080fd5b506040516200128f3803806200128f83398181016040528101906200004191906200023f565b33600073ffffffffffffffffffffffffffffffffffffffff168173ffffffffffffffffffffffffffffffffffffffff1603620000b75760006040517f1e4fbdf7000000000000000000000000000000000000000000000000000000008152600401620000ae919062000282565b60405180910390fd5b620000c8816200011160201b60201c565b5080600160006101000a81548173ffffffffffffffffffffffffffffffffffffffff021916908373ffffffffffffffffffffffffffffffffffffffff160217905550506200029f565b60008060009054906101000a900473ffffffffffffffffffffffffffffffffffffffff169050816000806101000a81548173ffffffffffffffffffffffffffffffffffffffff021916908373ffffffffffffffffffffffffffffffffffffffff1602179055508173ffffffffffffffffffffffffffffffffffffffff168173ffffffffffffffffffffffffffffffffffffffff167f8be0079c531659141344cd1fd0a4f28419497f9722a3daafe3b4186f6b6457e060405160405180910390a35050565b600080fd5b600073ffffffffffffffffffffffffffffffffffffffff82169050919050565b60006200020782620001da565b9050919050565b6200021981620001fa565b81146200022557600080fd5b50565b60008151905062000239816200020e565b92915050565b600060208284031215620002585762000257620001d5565b5b6000620002688482850162000228565b91505092915050565b6200027c81620001fa565b82525050565b600060208201905062000299600083018462000271565b92915050565b610fe080620002af6000396000f3fe608060405234801561001057600080fd5b50600436106100a95760003560e01c80638c04166f116100715780638c04166f1461013e5780638da5cb5b1461015c5780639bda91731461017a578063e0e9324414610196578063f2fde38b146101b4578063f3fef3a3146101d0576100a9565b806347e7ef24146100ae5780636ca0f814146100ca578063715018a6146100fa57806372d87172146101045780638314692014610120575b600080fd5b6100c860048036038101906100c391906109b4565b6101ec565b005b6100e460048036038101906100df9190610a59565b610319565b6040516100f19190610b49565b60405180910390f35b6101026104b8565b005b61011e60048036038101906101199190610b6b565b6104cc565b005b610128610518565b6040516101359190610ba7565b60405180910390f35b61014661051e565b6040516101539190610ba7565b60405180910390f35b610164610524565b6040516101719190610bd1565b60405180910390f35b610194600480360381019061018f9190610bec565b61054d565b005b61019e6105e4565b6040516101ab9190610bd1565b60405180910390f35b6101ce60048036038101906101c99190610b6b565b61060a565b005b6101ea60048036038101906101e591906109b4565b610690565b005b6000811161022f576040517f08c379a000000000000000000000000000000000000000000000000000000000815260040161022690610c89565b60405180910390fd5b8173ffffffffffffffffffffffffffffffffffffffff166323b872dd3330846040518463ffffffff1660e01b815260040161026c93929190610ca9565b6020604051808303816000875af115801561028b573d6000803e3d6000fd5b505050506040513d601f19601f820116820180604052508101906102af9190610d18565b508173ffffffffffffffffffffffffffffffffffffffff163373ffffffffffffffffffffffffffffffffffffffff167f8752a472e571a816aea92eec8dae9baf628e840f4929fbcc2d155e6233ff68a78360405161030d9190610ba7565b60405180910390a35050565b6060600160009054906101000a900473ffffffffffffffffffffffffffffffffffffffff1673ffffffffffffffffffffffffffffffffffffffff163373ffffffffffffffffffffffffffffffffffffffff16146103ab576040517f08c379a00000000000000000000000000000000000000000000000000000000081526004016103a290610db7565b60405180910390fd5b6000808573ffffffffffffffffffffffffffffffffffffffff1685856040516103d5929190610e16565b6000604051808303816000865af19150503d8060008114610412576040519150601f19603f3d011682016040523d82523d6000602084013e610417565b606091505b50915091508161045c576040517f08c379a000000000000000000000000000000000000000000000000000000000815260040161045390610e7b565b60405180910390fd5b8573ffffffffffffffffffffffffffffffffffffffff167f6a9d52079a1ac0ea72c563072a89036e4144243170fda6efc656b566af5e645986866040516104a4929190610ec8565b60405180910390a280925050509392505050565b6104c06107c3565b6104ca600061084a565b565b6104d46107c3565b80600160006101000a81548173ffffffffffffffffffffffffffffffffffffffff021916908373ffffffffffffffffffffffffffffffffffffffff16021790555050565b60025481565b60035481565b60008060009054906101000a900473ffffffffffffffffffffffffffffffffffffffff16905090565b6105556107c3565b6064821115610599576040517f08c379a000000000000000000000000000000000000000000000000000000000815260040161059090610f38565b60405180910390fd5b81600281905550806003819055507f5af364c26b1a53ab8d447b1561d8fc945abd6298b7df6d920ab7c38234e7531682826040516105d8929190610f58565b60405180910390a15050565b600160009054906101000a900473ffffffffffffffffffffffffffffffffffffffff1681565b6106126107c3565b600073ffffffffffffffffffffffffffffffffffffffff168173ffffffffffffffffffffffffffffffffffffffff16036106845760006040517f1e4fbdf700000000000000000000000000000000000000000000000000000000815260040161067b9190610bd1565b60405180910390fd5b61068d8161084a565b50565b6106986107c3565b600081116106db576040517f08c379a00000000000000000000000000000000000000000000000000000000081526004016106d290610c89565b60405180910390fd5b8173ffffffffffffffffffffffffffffffffffffffff1663a9059cbb33836040518363ffffffff1660e01b8152600401610716929190610f81565b6020604051808303816000875af1158015610735573d6000803e3d6000fd5b505050506040513d601f19601f820116820180604052508101906107599190610d18565b508173ffffffffffffffffffffffffffffffffffffffff163373ffffffffffffffffffffffffffffffffffffffff167fd1c19fbcd4551a5edfb66d43d2e337c04837afda3482b42bdf569a8fccdae5fb836040516107b79190610ba7565b60405180910390a35050565b6107cb61090e565b73ffffffffffffffffffffffffffffffffffffffff166107e9610524565b73ffffffffffffffffffffffffffffffffffffffff16146108485761080c61090e565b6040517f118cdaa700000000000000000000000000000000000000000000000000000000815260040161083f9190610bd1565b60405180910390fd5b565b60008060009054906101000a900473ffffffffffffffffffffffffffffffffffffffff169050816000806101000a81548173ffffffffffffffffffffffffffffffffffffffff021916908373ffffffffffffffffffffffffffffffffffffffff1602179055508173ffffffffffffffffffffffffffffffffffffffff168173ffffffffffffffffffffffffffffffffffffffff167f8be0079c531659141344cd1fd0a4f28419497f9722a3daafe3b4186f6b6457e060405160405180910390a35050565b600033905090565b600080fd5b600080fd5b600073ffffffffffffffffffffffffffffffffffffffff82169050919050565b600061094b82610920565b9050919050565b61095b81610940565b811461096657600080fd5b50565b60008135905061097881610952565b92915050565b6000819050919050565b6109918161097e565b811461099c57600080fd5b50565b6000813590506109ae81610988565b92915050565b600080604083850312156109cb576109ca610916565b5b60006109d985828601610969565b92505060206109ea8582860161099f565b9150509250929050565b600080fd5b600080fd5b600080fd5b60008083601f840112610a1957610a186109f4565b5b8235905067ffffffffffffffff811115610a3657610a356109f9565b5b602083019150836001820283011115610a5257610a516109fe565b5b9250929050565b600080600060408486031215610a7257610a71610916565b5b6000610a8086828701610969565b935050602084013567ffffffffffffffff811115610aa157610aa061091b565b5b610aad86828701610a03565b92509250509250925092565b600081519050919050565b600082825260208201905092915050565b60005b83811015610af3578082015181840152602081019050610ad8565b60008484015250505050565b6000601f19601f8301169050919050565b6000610b1b82610ab9565b610b258185610ac4565b9350610b35818560208601610ad5565b610b3e81610aff565b840191505092915050565b60006020820190508181036000830152610b638184610b10565b905092915050565b600060208284031215610b8157610b80610916565b5b6000610b8f84828501610969565b91505092915050565b610ba18161097e565b82525050565b6000602082019050610bbc6000830184610b98565b92915050565b610bcb81610940565b82525050565b6000602082019050610be66000830184610bc2565b92915050565b60008060408385031215610c0357610c02610916565b5b6000610c118582860161099f565b9250506020610c228582860161099f565b9150509250929050565b600082825260208201905092915050565b7f416d6f756e74206d7573742062652067726561746572207468616e2030000000600082015250565b6000610c73601d83610c2c565b9150610c7e82610c3d565b602082019050919050565b60006020820190508181036000830152610ca281610c66565b9050919050565b6000606082019050610cbe6000830186610bc2565b610ccb6020830185610bc2565b610cd86040830184610b98565b949350505050565b60008115159050919050565b610cf581610ce0565b8114610d0057600080fd5b50565b600081519050610d1281610cec565b92915050565b600060208284031215610d2e57610d2d610916565b5b6000610d3c84828501610d03565b91505092915050565b7f43616c6c6572206973206e6f742074686520657865637574696f6e20636f6e7460008201527f7261637400000000000000000000000000000000000000000000000000000000602082015250565b6000610da1602483610c2c565b9150610dac82610d45565b604082019050919050565b60006020820190508181036000830152610dd081610d94565b9050919050565b600081905092915050565b82818337600083830152505050565b6000610dfd8385610dd7565b9350610e0a838584610de2565b82840190509392505050565b6000610e23828486610df1565b91508190509392505050565b7f5472616e73616374696f6e20657865637574696f6e206661696c656400000000600082015250565b6000610e65601c83610c2c565b9150610e7082610e2f565b602082019050919050565b60006020820190508181036000830152610e9481610e58565b9050919050565b6000610ea78385610ac4565b9350610eb4838584610de2565b610ebd83610aff565b840190509392505050565b60006020820190508181036000830152610ee3818486610e9b565b90509392505050565b7f50657263656e74616765203e2031303000000000000000000000000000000000600082015250565b6000610f22601083610c2c565b9150610f2d82610eec565b602082019050919050565b60006020820190508181036000830152610f5181610f15565b9050919050565b6000604082019050610f6d6000830185610b98565b610f7a6020830184610b98565b9392505050565b6000604082019050610f966000830185610bc2565b610fa36020830184610b98565b939250505056fea264697066735822122030c0309f4b2c3e74a154f4dc26ace41481e83d58152d0061cc8eda6ee751ad0764736f6c63430008180033",
  "linkReferences": {},
  "deployedLinkReferences": {}
}