{
  "_format": "hh-sol-artifact-1",
  "contractName": "AgentRegistry",
  "sourceName": "contracts/AgentRegistry.sol",
  "abi": [
    {
      "inputs": [],
      "stateMutability": "nonpayable",
      "type": "constructor"
    },
    {
      "inputs": [
        {
          "internalType": "address",
          "name": "sender",
          "type": "address"
        },
        {
          "internalType": "uint256",
          "name": "tokenId",
          "type": "uint256"
        },
        {
          "internalType": "address",
          "name": "owner",
          "type": "address"
        }
      ],
      "name": "ERC721IncorrectOwner",
      "type": "error"
    },
    {
      "inputs": [
        {
          "internalType": "address",
          "name": "operator",
          "type": "address"
        },
        {
          "internalType": "uint256",
          "name": "tokenId",
          "type": "uint256"
        }
      ],
      "name": "ERC721InsufficientApproval",
      "type": "error"
    },
    {
      "inputs": [
        {
          "internalType": "address",
          "name": "approver",
          "type": "address"
        }
      ],
      "name": "ERC721InvalidApprover",
      "type": "error"
    },
    {
      "inputs": [
        {
          "internalType": "address",
          "name": "operator",
          "type": "address"
        }
      ],
      "name": "ERC721InvalidOperator",
      "type": "error"
    },
    {
      "inputs": [
        {
          "internalType": "address",
          "name": "owner",
          "type": "address"
        }
      ],
      "name": "ERC721InvalidOwner",
      "type": "error"
    },
    {
      "inputs": [
        {
          "internalType": "address",
          "name": "receiver",
          "type": "address"
        }
      ],
      "name": "ERC721InvalidReceiver",
      "type": "error"
    },
    {
      "inputs": [
        {
          "internalType": "address",
          "name": "sender",
          "type": "address"
        }
      ],
      "name": "ERC721InvalidSender",
      "type": "error"
    },
    {
      "inputs": [
        {
          "internalType": "uint256",
          "name": "tokenId",
          "type": "uint256"
        }
      ],
      "name": "ERC721NonexistentToken",
      "type": "error"
    },
    {
      "inputs": [
        {
          "internalType": "address",
          "name": "owner",
          "type": "address"
        }
      ],
      "name": "OwnableInvalidOwner",
      "type": "error"
    },
    {
      "inputs": [
        {
          "internalType": "address",
          "name": "account",
          "type": "address"
        }
      ],
      "name": "OwnableUnauthorizedAccount",
      "type": "error"
    },
    {
      "anonymous": false,
      "inputs": [
        {
          "indexed": true,
          "internalType": "uint256",
          "name": "agentId",
          "type": "uint256"
        },
        {
          "indexed": true,
          "internalType": "address",
          "name": "owner",
          "type": "address"
        },
        {
          "indexed": false,
          "internalType": "string",
          "name": "tokenURI",
          "type": "string"
        }
      ],
      "name": "AgentRegistered",
      "type": "event"
    },
    {
      "anonymous": false,
      "inputs": [
        {
          "indexed": true,
          "internalType": "address",
          "name": "owner",
          "type": "address"
        },
        {
          "indexed": true,
          "internalType": "address",
          "name": "approved",
          "type": "address"
        },
        {
          "indexed": true,
          "internalType": "uint256",
          "name": "tokenId",
          "type": "uint256"
        }
      ],
      "name": "Approval",
      "type": "event"
    },
    {
      "anonymous": false,
      "inputs": [
        {
          "indexed": true,
          "internalType": "address",
          "name": "owner",
          "type": "address"
        },
        {
          "indexed": true,
          "internalType": "address",
          "name": "operator",
          "type": "address"
        },
        {
          "indexed": false,
          "internalType": "bool",
          "name": "approved",
          "type": "bool"
        }
      ],
      "name": "ApprovalForAll",
      "type": "event"
    },
    {
      "anonymous": false,
      "inputs": [
        {
          "indexed": false,
          "internalType": "uint256",
          "name": "_fromTokenId",
          "type": "uint256"
        },
        {
          "indexed": false,
          "internalType": "uint256",
          "name": "_toTokenId",
          "type": "uint256"
        }
      ],
      "name": "BatchMetadataUpdate",
      "type": "event"
    },
    {
      "anonymous": false,
      "inputs": [
        {
          "indexed": false,
          "internalType": "uint256",
          "name": "_tokenId",
          "type": "uint256"
        }
      ],
      "name": "MetadataUpdate",
      "type": "event"
    },
    {
      "anonymous": false,
      "inputs": [
        {
          "indexed": true,
          "internalType": "address",
          "name": "previousOwner",
          "type": "address"
        },
        {
          "indexed": true,
          "internalType": "address",
          "name": "newOwner",
          "type": "address"
        }
      ],
      "name": "OwnershipTransferred",
      "type": "event"
    },
    {
      "anonymous": false,
      "inputs": [
        {
          "indexed": true,
          "internalType": "address",
          "name": "from",
          "type": "address"
        },
        {
          "indexed": true,
          "internalType": "address",
          "name": "to",
          "type": "address"
        },
        {
          "indexed": true,
          "internalType": "uint256",
          "name": "tokenId",
          "type": "uint256"
        }
      ],
      "name": "Transfer",
      "type": "event"
    },
    {
      "inputs": [
        {
          "internalType": "address",
          "name": "to",
          "type": "address"
        },
        {
          "internalType": "uint256",
          "name": "tokenId",
          "type": "uint256"
        }
      ],
      "name": "approve",
      "outputs": [],
      "stateMutability": "nonpayable",
      "type": "function"
    },
    {
      "inputs": [
        {
          "internalType": "address",
          "name": "owner",
          "type": "address"
        }
      ],
      "name": "balanceOf",
      "outputs": [
        {
          "internalType": "uint256",
          "name": "",
          "type": "uint256"
        }
      ],
      "stateMutability": "view",
      "type": "function"
    },
    {
      "inputs": [
        {
          "internalType": "uint256",
          "name": "tokenId",
          "type": "uint256"
        }
      ],
      "name": "getApproved",
      "outputs": [
        {
          "internalType": "address",
          "name": "",
          "type": "address"
        }
      ],
      "stateMutability": "view",
      "type": "function"
    },
    {
      "inputs": [
        {
          "internalType": "address",
          "name": "owner",
          "type": "address"
        },
        {
          "internalType": "address",
          "name": "operator",
          "type": "address"
        }
      ],
      "name": "isApprovedForAll",
      "outputs": [
        {
          "internalType": "bool",
          "name": "",
          "type": "bool"
        }
      ],
      "stateMutability": "view",
      "type": "function"
    },
    {
      "inputs": [],
      "name": "name",
      "outputs": [
        {
          "internalType": "string",
          "name": "",
          "type": "string"
        }
      ],
      "stateMutability": "view",
      "type": "function"
    },
    {
      "inputs": [],
      "name": "owner",
      "outputs": [
        {
          "internalType": "address",
          "name": "",
          "type": "address"
        }
      ],
      "stateMutability": "view",
      "type": "function"
    },
    {
      "inputs": [
        {
          "internalType": "uint256",
          "name": "tokenId",
          "type": "uint256"
        }
      ],
      "name": "ownerOf",
      "outputs": [
        {
          "internalType": "address",
          "name": "",
          "type": "address"
        }
      ],
      "stateMutability": "view",
      "type": "function"
    },
    {
      "inputs": [
        {
          "internalType": "string",
          "name": "tokenURI",
          "type": "string"
        }
      ],
      "name": "registerAgent",
      "outputs": [
        {
          "internalType": "uint256",
          "name": "",
          "type": "uint256"
        }
      ],
      "stateMutability": "nonpayable",
      "type": "function"
    },
    {
      "inputs": [],
      "name": "renounceOwnership",
      "outputs": [],
      "stateMutability": "nonpayable",
      "type": "function"
    },
    {
      "inputs": [
        {
          "internalType": "address",
          "name": "from",
          "type": "address"
        },
        {
          "internalType": "address",
          "name": "to",
          "type": "address"
        },
        {
          "internalType": "uint256",
          "name": "tokenId",
          "type": "uint256"
        }
      ],
      "name": "safeTransferFrom",
      "outputs": [],
      "stateMutability": "nonpayable",
      "type": "function"
    },
    {
      "inputs": [
        {
          "internalType": "address",
          "name": "from",
          "type": "address"
        },
        {
          "internalType": "address",
          "name": "to",
          "type": "address"
        },
        {
          "internalType": "uint256",
          "name": "tokenId",
          "type": "uint256"
        },
        {
          "internalType": "bytes",
          "name": "data",
          "type": "bytes"
        }
      ],
      "name": "safeTransferFrom",
      "outputs": [],
      "stateMutability": "nonpayable",
      "type": "function"
    },
    {
      "inputs": [
        {
          "internalType": "address",
          "name": "operator",
          "type": "address"
        },
        {
          "internalType": "bool",
          "name": "approved",
          "type": "bool"
        }
      ],
      "name": "setApprovalForAll",
      "outputs": [],
      "stateMutability": "nonpayable",
      "type": "function"
    },
    {
      "inputs": [
        {
          "internalType": "bytes4",
          "name": "interfaceId",
          "type": "bytes4"
        }
      ],
      "name": "supportsInterface",
      "outputs": [
        {
          "internalType": "bool",
          "name": "",
          "type": "bool"
        }
      ],
      "stateMutability": "view",
      "type": "function"
    },
    {
      "inputs": [],
      "name": "symbol",
      "outputs": [
        {
          "internalType": "string",
          "name": "",
          "type": "string"
        }
      ],
      "stateMutability": "view",
      "type": "function"
    },
    {
      "inputs": [
        {
          "internalType": "uint256",
          "name": "tokenId",
          "type": "uint256"
        }
      ],
      "name": "tokenURI",
      "outputs": [
        {
          "internalType": "string",
          "name": "",
          "type": "string"
        }
      ],
      "stateMutability": "view",
      "type": "function"
    },
    {
      "inputs": [
        {
          "internalType": "address",
          "name": "from",
          "type": "address"
        },
        {
          "internalType": "address",
          "name": "to",
          "type": "address"
        },
        {
          "internalType": "uint256",
          "name": "tokenId",
          "type": "uint256"
        }
      ],
      "name": "transferFrom",
      "outputs": [],
      "stateMutability": "nonpayable",
      "type": "function"
    },
    {
      "inputs": [
        {
          "internalType": "address",
          "name": "newOwner",
          "type": "address"
        }
      ],
      "name": "transferOwnership",
      "outputs": [],
      "stateMutability": "nonpayable",
      "type": "function"
    }
  ],
  "bytecode": "0x60806040523480156200001157600080fd5b50336040518060400160405280600a81526020017f4e657875734167656e74000000000000000000000000000000000000000000008152506040518060400160405280600381526020017f4e58410000000000000000000000000000000000000000000000000000000000815250816000908162000090919062000472565b508060019081620000a2919062000472565b505050600073ffffffffffffffffffffffffffffffffffffffff168173ffffffffffffffffffffffffffffffffffffffff16036200011a5760006040517f1e4fbdf70000000000000000000000000000000000000000000000000000000081526004016200011191906200059e565b60405180910390fd5b6200012b816200013260201b60201c565b50620005bb565b6000600760009054906101000a900473ffffffffffffffffffffffffffffffffffffffff16905081600760006101000a81548173ffffffffffffffffffffffffffffffffffffffff021916908373ffffffffffffffffffffffffffffffffffffffff1602179055508173ffffffffffffffffffffffffffffffffffffffff168173ffffffffffffffffffffffffffffffffffffffff167f8be0079c531659141344cd1fd0a4f28419497f9722a3daafe3b4186f6b6457e060405160405180910390a35050565b600081519050919050565b7f4e487b7100000000000000000000000000000000000000000000000000000000600052604160045260246000fd5b7f4e487b7100000000000000000000000000000000000000000000000000000000600052602260045260246000fd5b600060028204905060018216806200027a57607f821691505b60208210810362000290576200028f62000232565b5b50919050565b60008190508160005260206000209050919050565b60006020601f8301049050919050565b600082821b905092915050565b600060088302620002fa7fffffffffffffffffffffffffffffffffffffffffffffffffffffffffffffffff82620002bb565b620003068683620002bb565b95508019841693508086168417925050509392505050565b6000819050919050565b6000819050919050565b6000620003536200034d62000347846200031e565b62000328565b6200031e565b9050919050565b6000819050919050565b6200036f8362000332565b620003876200037e826200035a565b848454620002c8565b825550505050565b600090565b6200039e6200038f565b620003ab81848462000364565b505050565b5b81811015620003d357620003c760008262000394565b600181019050620003b1565b5050565b601f8211156200042257620003ec8162000296565b620003f784620002ab565b8101602085101562000407578190505b6200041f6200041685620002ab565b830182620003b0565b50505b505050565b600082821c905092915050565b6000620004476000198460080262000427565b1980831691505092915050565b600062000462838362000434565b9150826002028217905092915050565b6200047d82620001f8565b67ffffffffffffffff81111562000499576200049862000203565b5b620004a5825462000261565b620004b2828285620003d7565b600060209050601f831160018114620004ea5760008415620004d5578287015190505b620004e1858262000454565b86555062000551565b601f198416620004fa8662000296565b60005b828110156200052457848901518255600182019150602085019450602081019050620004fd565b8683101562000544578489015162000540601f89168262000434565b8355505b6001600288020188555050505b505050505050565b600073ffffffffffffffffffffffffffffffffffffffff82169050919050565b6000620005868262000559565b9050919050565b620005988162000579565b82525050565b6000602082019050620005b560008301846200058d565b92915050565b61266f80620005cb6000396000f3fe608060405234801561001057600080fd5b506004361061010b5760003560e01c806370a08231116100a2578063a22cb46511610071578063a22cb465146102b8578063b88d4fde146102d4578063c87b56dd146102f0578063e985e9c514610320578063f2fde38b146103505761010b565b806370a0823114610242578063715018a6146102725780638da5cb5b1461027c57806395d89b411461029a5761010b565b806323b872dd116100de57806323b872dd146101aa5780632d2a9585146101c657806342842e0e146101f65780636352211e146102125761010b565b806301ffc9a71461011057806306fdde0314610140578063081812fc1461015e578063095ea7b31461018e575b600080fd5b61012a60048036038101906101259190611ada565b61036c565b6040516101379190611b22565b60405180910390f35b6101486103cd565b6040516101559190611bcd565b60405180910390f35b61017860048036038101906101739190611c25565b61045f565b6040516101859190611c93565b60405180910390f35b6101a860048036038101906101a39190611cda565b61047b565b005b6101c460048036038101906101bf9190611d1a565b610491565b005b6101e060048036038101906101db9190611ea2565b610593565b6040516101ed9190611efa565b60405180910390f35b610210600480360381019061020b9190611d1a565b61061b565b005b61022c60048036038101906102279190611c25565b61063b565b6040516102399190611c93565b60405180910390f35b61025c60048036038101906102579190611f15565b61064d565b6040516102699190611efa565b60405180910390f35b61027a610707565b005b61028461071b565b6040516102919190611c93565b60405180910390f35b6102a2610745565b6040516102af9190611bcd565b60405180910390f35b6102d260048036038101906102cd9190611f6e565b6107d7565b005b6102ee60048036038101906102e9919061204f565b6107ed565b005b61030a60048036038101906103059190611c25565b610812565b6040516103179190611bcd565b60405180910390f35b61033a600480360381019061033591906120d2565b610925565b6040516103479190611b22565b60405180910390f35b61036a60048036038101906103659190611f15565b6109b9565b005b6000634906490660e01b7bffffffffffffffffffffffffffffffffffffffffffffffffffffffff1916827bffffffffffffffffffffffffffffffffffffffffffffffffffffffff191614806103c657506103c582610a3f565b5b9050919050565b6060600080546103dc90612141565b80601f016020809104026020016040519081016040528092919081815260200182805461040890612141565b80156104555780601f1061042a57610100808354040283529160200191610455565b820191906000526020600020905b81548152906001019060200180831161043857829003601f168201915b5050505050905090565b600061046a82610b21565b5061047482610ba9565b9050919050565b61048d8282610488610be6565b610bee565b5050565b600073ffffffffffffffffffffffffffffffffffffffff168273ffffffffffffffffffffffffffffffffffffffff16036105035760006040517f64a0ae920000000000000000000000000000000000000000000000000000000081526004016104fa9190611c93565b60405180910390fd5b60006105178383610512610be6565b610c00565b90508373ffffffffffffffffffffffffffffffffffffffff168173ffffffffffffffffffffffffffffffffffffffff161461058d578382826040517f64283d7b00000000000000000000000000000000000000000000000000000000815260040161058493929190612172565b60405180910390fd5b50505050565b600080600860008154809291906105a9906121d8565b9190505590506105b93382610e1a565b6105c38184610f13565b3373ffffffffffffffffffffffffffffffffffffffff16817f0d063c6022bff16d09991a9f91882ffa112f5fb2529136f65eb4c77bbd047e438560405161060a9190611bcd565b60405180910390a380915050919050565b610636838383604051806020016040528060008152506107ed565b505050565b600061064682610b21565b9050919050565b60008073ffffffffffffffffffffffffffffffffffffffff168273ffffffffffffffffffffffffffffffffffffffff16036106c05760006040517f89c62b640000000000000000000000000000000000000000000000000000000081526004016106b79190611c93565b60405180910390fd5b600360008373ffffffffffffffffffffffffffffffffffffffff1673ffffffffffffffffffffffffffffffffffffffff168152602001908152602001600020549050919050565b61070f610f6f565b6107196000610ff6565b565b6000600760009054906101000a900473ffffffffffffffffffffffffffffffffffffffff16905090565b60606001805461075490612141565b80601f016020809104026020016040519081016040528092919081815260200182805461078090612141565b80156107cd5780601f106107a2576101008083540402835291602001916107cd565b820191906000526020600020905b8154815290600101906020018083116107b057829003601f168201915b5050505050905090565b6107e96107e2610be6565b83836110bc565b5050565b6107f8848484610491565b61080c610803610be6565b8585858561122b565b50505050565b606061081d82610b21565b50600060066000848152602001908152602001600020805461083e90612141565b80601f016020809104026020016040519081016040528092919081815260200182805461086a90612141565b80156108b75780601f1061088c576101008083540402835291602001916108b7565b820191906000526020600020905b81548152906001019060200180831161089a57829003601f168201915b5050505050905060006108c86113dc565b905060008151036108dd578192505050610920565b6000825111156109125780826040516020016108fa92919061225c565b60405160208183030381529060405292505050610920565b61091b846113f3565b925050505b919050565b6000600560008473ffffffffffffffffffffffffffffffffffffffff1673ffffffffffffffffffffffffffffffffffffffff16815260200190815260200160002060008373ffffffffffffffffffffffffffffffffffffffff1673ffffffffffffffffffffffffffffffffffffffff16815260200190815260200160002060009054906101000a900460ff16905092915050565b6109c1610f6f565b600073ffffffffffffffffffffffffffffffffffffffff168173ffffffffffffffffffffffffffffffffffffffff1603610a335760006040517f1e4fbdf7000000000000000000000000000000000000000000000000000000008152600401610a2a9190611c93565b60405180910390fd5b610a3c81610ff6565b50565b60007f80ac58cd000000000000000000000000000000000000000000000000000000007bffffffffffffffffffffffffffffffffffffffffffffffffffffffff1916827bffffffffffffffffffffffffffffffffffffffffffffffffffffffff19161480610b0a57507f5b5e139f000000000000000000000000000000000000000000000000000000007bffffffffffffffffffffffffffffffffffffffffffffffffffffffff1916827bffffffffffffffffffffffffffffffffffffffffffffffffffffffff1916145b80610b1a5750610b198261145c565b5b9050919050565b600080610b2d836114c6565b9050600073ffffffffffffffffffffffffffffffffffffffff168173ffffffffffffffffffffffffffffffffffffffff1603610ba057826040517f7e273289000000000000000000000000000000000000000000000000000000008152600401610b979190611efa565b60405180910390fd5b80915050919050565b60006004600083815260200190815260200160002060009054906101000a900473ffffffffffffffffffffffffffffffffffffffff169050919050565b600033905090565b610bfb8383836001611503565b505050565b600080610c0c846114c6565b9050600073ffffffffffffffffffffffffffffffffffffffff168373ffffffffffffffffffffffffffffffffffffffff1614610c4e57610c4d8184866116c8565b5b600073ffffffffffffffffffffffffffffffffffffffff168173ffffffffffffffffffffffffffffffffffffffff1614610cdf57610c90600085600080611503565b6001600360008373ffffffffffffffffffffffffffffffffffffffff1673ffffffffffffffffffffffffffffffffffffffff168152602001908152602001600020600082825403925050819055505b600073ffffffffffffffffffffffffffffffffffffffff168573ffffffffffffffffffffffffffffffffffffffff1614610d62576001600360008773ffffffffffffffffffffffffffffffffffffffff1673ffffffffffffffffffffffffffffffffffffffff168152602001908152602001600020600082825401925050819055505b846002600086815260200190815260200160002060006101000a81548173ffffffffffffffffffffffffffffffffffffffff021916908373ffffffffffffffffffffffffffffffffffffffff160217905550838573ffffffffffffffffffffffffffffffffffffffff168273ffffffffffffffffffffffffffffffffffffffff167fddf252ad1be2c89b69c2b068fc378daa952ba7f163c4a11628f55a4df523b3ef60405160405180910390a4809150509392505050565b600073ffffffffffffffffffffffffffffffffffffffff168273ffffffffffffffffffffffffffffffffffffffff1603610e8c5760006040517f64a0ae92000000000000000000000000000000000000000000000000000000008152600401610e839190611c93565b60405180910390fd5b6000610e9a83836000610c00565b9050600073ffffffffffffffffffffffffffffffffffffffff168173ffffffffffffffffffffffffffffffffffffffff1614610f0e5760006040517f73c6ac6e000000000000000000000000000000000000000000000000000000008152600401610f059190611c93565b60405180910390fd5b505050565b80600660008481526020019081526020016000209081610f33919061242c565b507ff8e1a15aba9398e019f0b49df1a4fde98ee17ae345cb5f6b5e2c27f5033e8ce782604051610f639190611efa565b60405180910390a15050565b610f77610be6565b73ffffffffffffffffffffffffffffffffffffffff16610f9561071b565b73ffffffffffffffffffffffffffffffffffffffff1614610ff457610fb8610be6565b6040517f118cdaa7000000000000000000000000000000000000000000000000000000008152600401610feb9190611c93565b60405180910390fd5b565b6000600760009054906101000a900473ffffffffffffffffffffffffffffffffffffffff16905081600760006101000a81548173ffffffffffffffffffffffffffffffffffffffff021916908373ffffffffffffffffffffffffffffffffffffffff1602179055508173ffffffffffffffffffffffffffffffffffffffff168173ffffffffffffffffffffffffffffffffffffffff167f8be0079c531659141344cd1fd0a4f28419497f9722a3daafe3b4186f6b6457e060405160405180910390a35050565b600073ffffffffffffffffffffffffffffffffffffffff168273ffffffffffffffffffffffffffffffffffffffff160361112d57816040517f5b08ba180000000000000000000000000000000000000000000000000000000081526004016111249190611c93565b60405180910390fd5b80600560008573ffffffffffffffffffffffffffffffffffffffff1673ffffffffffffffffffffffffffffffffffffffff16815260200190815260200160002060008473ffffffffffffffffffffffffffffffffffffffff1673ffffffffffffffffffffffffffffffffffffffff16815260200190815260200160002060006101000a81548160ff0219169083151502179055508173ffffffffffffffffffffffffffffffffffffffff168373ffffffffffffffffffffffffffffffffffffffff167f17307eab39ab6107e8899845ad3d59bd9653f200f220920489ca2b5937696c318360405161121e9190611b22565b60405180910390a3505050565b60008373ffffffffffffffffffffffffffffffffffffffff163b11156113d5578273ffffffffffffffffffffffffffffffffffffffff1663150b7a02868685856040518563ffffffff1660e01b815260040161128a9493929190612553565b6020604051808303816000875af19250505080156112c657506040513d601f19601f820116820180604052508101906112c391906125b4565b60015b61134a573d80600081146112f6576040519150601f19603f3d011682016040523d82523d6000602084013e6112fb565b606091505b50600081510361134257836040517f64a0ae920000000000000000000000000000000000000000000000000000000081526004016113399190611c93565b60405180910390fd5b805160208201fd5b63150b7a0260e01b7bffffffffffffffffffffffffffffffffffffffffffffffffffffffff1916817bffffffffffffffffffffffffffffffffffffffffffffffffffffffff1916146113d357836040517f64a0ae920000000000000000000000000000000000000000000000000000000081526004016113ca9190611c93565b60405180910390fd5b505b5050505050565b606060405180602001604052806000815250905090565b60606113fe82610b21565b5060006114096113dc565b905060008151116114295760405180602001604052806000815250611454565b806114338461178c565b60405160200161144492919061225c565b6040516020818303038152906040525b915050919050565b60007f01ffc9a7000000000000000000000000000000000000000000000000000000007bffffffffffffffffffffffffffffffffffffffffffffffffffffffff1916827bffffffffffffffffffffffffffffffffffffffffffffffffffffffff1916149050919050565b60006002600083815260200190815260200160002060009054906101000a900473ffffffffffffffffffffffffffffffffffffffff169050919050565b808061153c5750600073ffffffffffffffffffffffffffffffffffffffff168273ffffffffffffffffffffffffffffffffffffffff1614155b1561167057600061154c84610b21565b9050600073ffffffffffffffffffffffffffffffffffffffff168373ffffffffffffffffffffffffffffffffffffffff16141580156115b757508273ffffffffffffffffffffffffffffffffffffffff168173ffffffffffffffffffffffffffffffffffffffff1614155b80156115ca57506115c88184610925565b155b1561160c57826040517fa9fbf51f0000000000000000000000000000000000000000000000000000000081526004016116039190611c93565b60405180910390fd5b811561166e57838573ffffffffffffffffffffffffffffffffffffffff168273ffffffffffffffffffffffffffffffffffffffff167f8c5be1e5ebec7d5bd14f71427d1e84f3dd0314c0f7b2291e5b200ac8c7c3b92560405160405180910390a45b505b836004600085815260200190815260200160002060006101000a81548173ffffffffffffffffffffffffffffffffffffffff021916908373ffffffffffffffffffffffffffffffffffffffff16021790555050505050565b6116d383838361185a565b61178757600073ffffffffffffffffffffffffffffffffffffffff168373ffffffffffffffffffffffffffffffffffffffff160361174857806040517f7e27328900000000000000000000000000000000000000000000000000000000815260040161173f9190611efa565b60405180910390fd5b81816040517f177e802f00000000000000000000000000000000000000000000000000000000815260040161177e9291906125e1565b60405180910390fd5b505050565b60606000600161179b8461191b565b01905060008167ffffffffffffffff8111156117ba576117b9611d77565b5b6040519080825280601f01601f1916602001820160405280156117ec5781602001600182028036833780820191505090505b509050600082602083010190505b60011561184f578080600190039150507f3031323334353637383961626364656600000000000000000000000000000000600a86061a8153600a85816118435761184261260a565b5b049450600085036117fa575b819350505050919050565b60008073ffffffffffffffffffffffffffffffffffffffff168373ffffffffffffffffffffffffffffffffffffffff161415801561191257508273ffffffffffffffffffffffffffffffffffffffff168473ffffffffffffffffffffffffffffffffffffffff1614806118d357506118d28484610925565b5b8061191157508273ffffffffffffffffffffffffffffffffffffffff166118f983610ba9565b73ffffffffffffffffffffffffffffffffffffffff16145b5b90509392505050565b600080600090507a184f03e93ff9f4daa797ed6e38ed64bf6a1f0100000000000000008310611979577a184f03e93ff9f4daa797ed6e38ed64bf6a1f010000000000000000838161196f5761196e61260a565b5b0492506040810190505b6d04ee2d6d415b85acef810000000083106119b6576d04ee2d6d415b85acef810000000083816119ac576119ab61260a565b5b0492506020810190505b662386f26fc1000083106119e557662386f26fc1000083816119db576119da61260a565b5b0492506010810190505b6305f5e1008310611a0e576305f5e1008381611a0457611a0361260a565b5b0492506008810190505b6127108310611a33576127108381611a2957611a2861260a565b5b0492506004810190505b60648310611a565760648381611a4c57611a4b61260a565b5b0492506002810190505b600a8310611a65576001810190505b80915050919050565b6000604051905090565b600080fd5b600080fd5b60007fffffffff0000000000000000000000000000000000000000000000000000000082169050919050565b611ab781611a82565b8114611ac257600080fd5b50565b600081359050611ad481611aae565b92915050565b600060208284031215611af057611aef611a78565b5b6000611afe84828501611ac5565b91505092915050565b60008115159050919050565b611b1c81611b07565b82525050565b6000602082019050611b376000830184611b13565b92915050565b600081519050919050565b600082825260208201905092915050565b60005b83811015611b77578082015181840152602081019050611b5c565b60008484015250505050565b6000601f19601f8301169050919050565b6000611b9f82611b3d565b611ba98185611b48565b9350611bb9818560208601611b59565b611bc281611b83565b840191505092915050565b60006020820190508181036000830152611be78184611b94565b905092915050565b6000819050919050565b611c0281611bef565b8114611c0d57600080fd5b50565b600081359050611c1f81611bf9565b92915050565b600060208284031215611c3b57611c3a611a78565b5b6000611c4984828501611c10565b91505092915050565b600073ffffffffffffffffffffffffffffffffffffffff82169050919050565b6000611c7d82611c52565b9050919050565b611c8d81611c72565b82525050565b6000602082019050611ca86000830184611c84565b92915050565b611cb781611c72565b8114611cc257600080fd5b50565b600081359050611cd481611cae565b92915050565b60008060408385031215611cf157611cf0611a78565b5b6000611cff85828601611cc5565b9250506020611d1085828601611c10565b9150509250929050565b600080600060608486031215611d3357611d32611a78565b5b6000611d4186828701611cc5565b9350506020611d5286828701611cc5565b9250506040611d6386828701611c10565b9150509250925092565b600080fd5b600080fd5b7f4e487b7100000000000000000000000000000000000000000000000000000000600052604160045260246000fd5b611daf82611b83565b810181811067ffffffffffffffff82111715611dce57611dcd611d77565b5b80604052505050565b6000611de1611a6e565b9050611ded8282611da6565b919050565b600067ffffffffffffffff821115611e0d57611e0c611d77565b5b611e1682611b83565b9050602081019050919050565b82818337600083830152505050565b6000611e45611e4084611df2565b611dd7565b905082815260208101848484011115611e6157611e60611d72565b5b611e6c848285611e23565b509392505050565b600082601f830112611e8957611e88611d6d565b5b8135611e99848260208601611e32565b91505092915050565b600060208284031215611eb857611eb7611a78565b5b600082013567ffffffffffffffff811115611ed657611ed5611a7d565b5b611ee284828501611e74565b91505092915050565b611ef481611bef565b82525050565b6000602082019050611f0f6000830184611eeb565b92915050565b600060208284031215611f2b57611f2a611a78565b5b6000611f3984828501611cc5565b91505092915050565b611f4b81611b07565b8114611f5657600080fd5b50565b600081359050611f6881611f42565b92915050565b60008060408385031215611f8557611f84611a78565b5b6000611f9385828601611cc5565b9250506020611fa485828601611f59565b9150509250929050565b600067ffffffffffffffff821115611fc957611fc8611d77565b5b611fd282611b83565b9050602081019050919050565b6000611ff2611fed84611fae565b611dd7565b90508281526020810184848401111561200e5761200d611d72565b5b612019848285611e23565b509392505050565b600082601f83011261203657612035611d6d565b5b8135612046848260208601611fdf565b91505092915050565b6000806000806080858703121561206957612068611a78565b5b600061207787828801611cc5565b945050602061208887828801611cc5565b935050604061209987828801611c10565b925050606085013567ffffffffffffffff8111156120ba576120b9611a7d565b5b6120c687828801612021565b91505092959194509250565b600080604083850312156120e9576120e8611a78565b5b60006120f785828601611cc5565b925050602061210885828601611cc5565b9150509250929050565b7f4e487b7100000000000000000000000000000000000000000000000000000000600052602260045260246000fd5b6000600282049050600182168061215957607f821691505b60208210810361216c5761216b612112565b5b50919050565b60006060820190506121876000830186611c84565b6121946020830185611eeb565b6121a16040830184611c84565b949350505050565b7f4e487b7100000000000000000000000000000000000000000000000000000000600052601160045260246000fd5b60006121e382611bef565b91507fffffffffffffffffffffffffffffffffffffffffffffffffffffffffffffffff8203612215576122146121a9565b5b600182019050919050565b600081905092915050565b600061223682611b3d565b6122408185612220565b9350612250818560208601611b59565b80840191505092915050565b6000612268828561222b565b9150612274828461222b565b91508190509392505050565b60008190508160005260206000209050919050565b60006020601f8301049050919050565b600082821b905092915050565b6000600883026122e27fffffffffffffffffffffffffffffffffffffffffffffffffffffffffffffffff826122a5565b6122ec86836122a5565b95508019841693508086168417925050509392505050565b6000819050919050565b600061232961232461231f84611bef565b612304565b611bef565b9050919050565b6000819050919050565b6123438361230e565b61235761234f82612330565b8484546122b2565b825550505050565b600090565b61236c61235f565b61237781848461233a565b505050565b5b8181101561239b57612390600082612364565b60018101905061237d565b5050565b601f8211156123e0576123b181612280565b6123ba84612295565b810160208510156123c9578190505b6123dd6123d585612295565b83018261237c565b50505b505050565b600082821c905092915050565b6000612403600019846008026123e5565b1980831691505092915050565b600061241c83836123f2565b9150826002028217905092915050565b61243582611b3d565b67ffffffffffffffff81111561244e5761244d611d77565b5b6124588254612141565b61246382828561239f565b600060209050601f8311600181146124965760008415612484578287015190505b61248e8582612410565b8655506124f6565b601f1984166124a486612280565b60005b828110156124cc578489015182556001820191506020850194506020810190506124a7565b868310156124e957848901516124e5601f8916826123f2565b8355505b6001600288020188555050505b505050505050565b600081519050919050565b600082825260208201905092915050565b6000612525826124fe565b61252f8185612509565b935061253f818560208601611b59565b61254881611b83565b840191505092915050565b60006080820190506125686000830187611c84565b6125756020830186611c84565b6125826040830185611eeb565b8181036060830152612594818461251a565b905095945050505050565b6000815190506125ae81611aae565b92915050565b6000602082840312156125ca576125c9611a78565b5b60006125d88482850161259f565b91505092915050565b60006040820190506125f66000830185611c84565b6126036020830184611eeb565b9392505050565b7f4e487b7100000000000000000000000000000000000000000000000000000000600052601260045260246000fdfea2646970667358221220d3e5dff5cd333e882b9aea0cf1931468eec673eba325ed307e13805fa616e0a164736f6c63430008180033",
  "linkReferences": {},
  "deployedLinkReferences": {}
}